:020000000329D2
:0E000600213083120313FD00FD0B07280800B4
:100014000F3083120313FC004730FD00FD0B102842
:0A002400FC0B10280000000008008B
:06002E00000000000800C4
:1000340083120313C21B2028861121288615421B14
:100044002528061126280615C21A2A2886102B28C8
:100054008614421A2F280610302806143A18342819
:10006400061635280612861617208612C2193C2851
:1000740086113D2886154219412806114228061585
:10008400C218462886104728861442184B280610A2
:100094004C2806143A1850280616512806128616BB
:1000A400172086123A1C58280A20592803200800D1
:0E00B400831203133C088A003B0882000800F8
:1000C200831203133A104108C2001A203A1408009E
:1000D2008316031386120612061086100611861165
:1000E20083128612061286110611861006100A2045
:1000F2000A200A20861406148616172086120A2061
:100102008616172086120A208616172086120A20C3
:1001120006108616172086120A20861617208612C7
:10012200861086158616172086120A208611061456
:1001320086161720861206108616172086120A20A7
:1001420086161720861206148616172086120A2093
:1001520006108616172086128615061586140614B2
:0C0162008616172086120A203A140800A6
:10016E00C928803083120313BD00DC28C030BD00C7
:10017E00DC289430BD00DC28D430BD00DC28803073
:10018E00BD00DC28831203133D08013A0319B82879
:10019E003D08023A0319BD283D08033A0319C02849
:1001AE003D08043A0319C328C6283E03F0003D0853
:1001BE00F0077008BD007008C2001A203A10C00186
:1001CE0040083F07840000080319F52840083F0740
:1001DE0084000008C1006120C00AE7283A14080014
:1001EE005A208A110A128000840ABB0A0319BC0A1B
:0801FE00F003031DF7280800BF
:10020600573083120313A0006530A1006C30A200A2
:100216006330A3006F30A4006D30A5006530A600E2
:100226002130A700A8014D30A9006930AA0063302B
:10023600AB007230AC006F30AD006330AE006F3093
:10024600AF006E30B0007430B1007230B2006F3063
:10025600B3006C30B4006C30B5006530B600723057
:10026600B7007330B800B901073083169F006920C4
:100276000130C2001A200C30C2001A200630FB00E2
:100286001330FC00AD30FD00FD0B4729FC0B472960
:10029600FB0B4729000000000130BD000630BE0000
:1002A6002030BF00B7200630FB001330FC00AD3015
:1002B600FD00FD0B5C29FC0B5C29FB0B5C29000097
:1002C60000000230BD000130BE002930BF00B7205B
:1002D6000630FB001330FC00AD30FD00FD0B71292C
:1002E600FC0B7129FB0B7129000000003B297A29C0
:02400E004A2F37
:00000001FF
